:1000000064C073C072C071C070C06FC06EC06DC07C
:100010006CC06BC06AC069C068C067C066C065C09C
:1000200064C063C062C024D99E860B24DF9E860B09
:100030005073E100E20050532E412008048120CF8C
:10004000F7FEFFFF20404B01E221C04B000022D011
:10005000FC8C02239900394124B99E860B25240685
:100060007FA62600000000270000000028000000F6
:100070000029000000002A000000002B0000000002
:100080002C001273002D36B48000200F213F223F38
:10009000230324082517263F2707280029002CC3FF
:1000A0002DC42EC52FC631203220332034203520D8
:1000B000362037203C3F3D072B35431010023034AB
:1000C000431010012A344310100111241FBECFE544
:1000D000D4E0DEBFCDBF10E0A0E6B0E001C01D92CD
:1000E000A536B107E1F7EED29AC38ACF84B3857DF6
:1000F00084BB8AE285BB089593B3909589230895C4
:1001000090916000982341F0909160008095892340
:100110008093600081E0089580E00895982F2091F9
:100120006000282349F08091600020916000909544
:10013000922390936000089580E00895E3E6F0E054
:10014000208120936400A2E6B0E03C913083E1E698
:10015000F0E040814C93DC018C9180958083932F5B
:1001600092279823909360000895B99AC19888982F
:1001700008958FB9779BFECF8FB10895C298F9DFAC
:1001800080E0F7DFC29A089585E0F8CF80E0F6DFDF
:1001900081700895CF92DF92FF920F931F93CF93B8
:1001A000DF931F92CDB7DEB7182FF92E062F87E108
:1001B0004983E4DF498185FD14C0C298411106C01E
:1001C00080EBD7DFC12EDF2C100F06C080EAF9CFFD
:1001D000F60181916F01CDDF1C11FACFC29A81E047
:1001E00001C080E00F90DF91CF911F910F91FF90A0
:1001F000DF90CF900895CF93DF931F92CDB7DEB7F6
:10020000C2986983B6DF6981862FB3DFC29A81E025
:100210000F90DF91CF910895CF93C82FC150C63072
:1002200068F482E0ABDF61E070E001C0660FCA9560
:10023000EAF76095682382E2CF91DDCFCF910895F0
:10024000CF93C82FC150C63060F482E097DF61E0E1
:1002500070E001C0660FCA95EAF7682B82E2CF9181
:10026000CACFCF910895682F85E2C5CFEF92FF9254
:100270000F931F93CF93DF931F92CDB7DEB7162F47
:10028000042FC298798375DFE12E7981F72E05C09E
:1002900080E06FDFF70181937F018E2D811B801736
:1002A000B8F3C29A0F90DF91CF911F910F91FF90F9
:1002B000EF9008950F931F93CF93DF93EC0187E0A6
:1002C0005DDF082F86FF10C080E658DF182F482F0B
:1002D000BE0181E6CBDF87E151DF80FF06C0602FE2
:1002E000606487E288DF01C010E0812FDF91CF9149
:1002F0001F910F9108950F931F93CF93DF931F9238
:10030000CDB7DEB7C2988C01680F07C0F8010F5F48
:100310001F4F849169832DDF69816013F7CFC29AE3
:1003200081E00F90DF91CF911F910F91089562E0CE
:1003300084E390E0E0CF62E082E390E0DCCF62E033
:1003400082E390E0D8DFC19880E018DF682F6E7FED
:1003500080E251DFC19A089562E084E390E0CBDF50
:1003600087E00CDF682F87E246DFC19880E006DF78
:10037000682F616080E23FDFC19A0895813009F4FF
:10038000EBCFDDCFCF93C82F87E0F8DE8078CC238A
:1003900039F0811107C062E086E390E0CF91ABCFE6
:1003A0008111F9CFCF9108951F93CF93DF9380E010
:1003B000E9DFC0E0D0E0CE01880F991FFC01E557CE
:1003C000FF4F6491FC01E657FF4F849114DF2196A3
:1003D000C431D10581F766E084EC90E08CDF66E003
:1003E00088EB90E088DF66E08EEB90E084DF8DE1C3
:1003F000C5DE811104C062E080E390E07CDFE7EBC2
:10040000F0E06491E6EBF0E08491F5DEE5EBF0E0FE
:100410006491E4EBF0E08491EEDE81E0B3DFC0E0D4
:10042000D0E015E01C9FC0011D9F900D112465E0D8
:100430008C5B9F4F60DF2196CE30D10599F76CE041
:1004400088E390E058DF65E08BE290E054DF65E000
:1004500086E290E050DF87EA91E60197F1F700C06D
:10046000000088E08BDE833611F480E08BDFDF91C3
:10047000CF911F9171CFEF92FF921F93CF93DF9394
:1004800000D0CDB7DEB7142FC29869837A8371DEAE
:100490006981E62E7A81F72E160F04C0F70181914B
:1004A0007F0167DE1E11FACFC29A81E00F900F9094
:1004B000DF91CF911F91FF90EF9008951F93CF93FD
:1004C000DF93EC01162F42E0BC0180E3D4DF42E071
:1004D000BE018AE2D0DF8CE151DE682F113011F4C9
:1004E000616001C06E7F8CE3DF91CF911F9183CE5D
:1004F0000F931F93CF93DF93182FD42F022F4132E6
:1005000008F052C0C82FC150C63008F04DC022308C
:1005100008F04AC0875FC23020F442E08062ABDF5F
:1005200004C0FB016081806266DE812F805FDD2375
:1005300001F16D2F80625FDE81E020DE61E070E01E
:100540000C2E01C0660F0A94EAF7002311F0682B05
:1005500002C06095682381E24EDE8CE10FDE61E02F
:1005600070E00C2E01C0660F0A94EAF760956823CC
:1005700015C060E280623FDE81E000DE61E070E095
:100580000C2E01C0660F0A94EAF7D62F682F6D2B48
:1005900081E231DE8CE1F2DD682F6D2B8CE32BDE06
:1005A0008C2F4EDE81E001C080E0DF91CF911F9162
:1005B0000F910895CF93C82F843048F486E0DEDD94
:1005C000897F6C2F660F682B86E2CF9114CECF9176
:1005D000089508952DB1982F93702C7F922B9DB97B
:1005E0009EB182FB882780F99E7F892B8EB9089562
:1005F00097B39C6297BBC29A98B3977D98BB90E5DE
:100600009DB9E8CFCF93DF931F92CDB7DEB7698353
:10061000ACDD6981862FECDF2FEB87E299E021507A
:1006200080409040E1F700C000000F90DF91CF9133
:10063000BBCE64E08FEFE6CFCF92DF92EF92FF92D6
:100640001F93CF93DF93FA011086EA01289617E0F3
:100650003AE0C32ED12CE12CF12CA7019601A9D0B0
:10066000605D6A93B901CA011150B8F7DF91CF916B
:100670001F91FF90EF90DF90CF900895FB011086BF
:1006800020E030E090E040E253E28217930714F05C
:10069000508301C040832F5F3F4F31962930310591
:1006A000A1F70895813011F4AC9A05C0AC9882305E
:1006B00011F4AA9A05C0AA98833011F4A89A089553
:1006C000A8980895CF93DF93CDB7DEB728970FB6DC
:1006D000F894DEBF0FBECDBF84E589838FE48A83A3
:1006E00082E48B831C82789401DD2FE38DE093E01C
:1006F000215080409040E1F700C000009ADF1FDEEB
:1007000088E0B1DD84B3856184BBE12C10E044E175
:10071000C42ED12C87E893E10197F1F700C00000C7
:1007200083E390E00BDD80E2EBDC882329F01130DD
:10073000A9F401E010E016C088E0E2DC882329F08B
:100740001230B9F301E012E00DC082E0D9DC882359
:1007500041F0133071F301E013E004C001E011E057
:1007600001C000E08E2D90E00196B6010FD0E82E7A
:10077000811101C001E0812F95DF1C83002351F21C
:1007800040E064E0CE01019605DDC4CF97FB072E63
:1007900016F4009406D077FD08D02DD007FC05D0C4
:1007A0003EF4909581959F4F0895709561957F4F88
:1007B0000895A1E21A2EAA1BBB1BFD010DC0AA1FA2
:1007C000BB1FEE1FFF1FA217B307E407F50720F0BA
:1007D000A21BB30BE40BF50B661F771F881F991F35
:1007E0001A9469F760957095809590959B01AC017E
:1007F000BD01CF010895AA1BBB1B51E107C0AA1F71
:10080000BB1FA617B70710F0A61BB70B881F991FB1
:100810005A95A9F780959095BC01CD010895F8945B
:02082000FFCF08
:00000001FF
